{
  "_format": "hh-sol-artifact-1",
  "contractName": "AuditLog",
  "sourceName": "contracts/AuditLog.sol",
  "abi": [
    {
      "anonymous": false,
      "inputs": [
        {
          "indexed": true,
          "internalType": "address",
          "name": "buyer",
          "type": "address"
        },
        {
          "indexed": true,
          "internalType": "address",
          "name": "seller",
          "type": "address"
        },
        {
          "indexed": false,
          "internalType": "uint256",
          "name": "amount",
          "type": "uint256"
        },
        {
          "indexed": false,
          "internalType": "uint256",
          "name": "timestamp",
          "type": "uint256"
        }
      ],
      "name": "TradeLogged",
      "type": "event"
    },
    {
      "inputs": [],
      "name": "getAllLogs",
      "outputs": [
        {
          "components": [
            {
              "internalType": "address",
              "name": "buyer",
              "type": "address"
            },
            {
              "internalType": "address",
              "name": "seller",
              "type": "address"
            },
            {
              "internalType": "uint256",
              "name": "amount",
              "type": "uint256"
            },
            {
              "internalType": "uint256",
              "name": "timestamp",
              "type": "uint256"
            }
          ],
          "internalType": "struct AuditLog.Log[]",
          "name": "",
          "type": "tuple[]"
        }
      ],
      "stateMutability": "view",
      "type": "function"
    },
    {
      "inputs": [
        {
          "internalType": "address",
          "name": "buyer",
          "type": "address"
        },
        {
          "internalType": "address",
          "name": "seller",
          "type": "address"
        },
        {
          "internalType": "uint256",
          "name": "amount",
          "type": "uint256"
        }
      ],
      "name": "logTrade",
      "outputs": [],
      "stateMutability": "nonpayable",
      "type": "function"
    },
    {
      "inputs": [
        {
          "internalType": "uint256",
          "name": "",
          "type": "uint256"
        }
      ],
      "name": "logs",
      "outputs": [
        {
          "internalType": "address",
          "name": "buyer",
          "type": "address"
        },
        {
          "internalType": "address",
          "name": "seller",
          "type": "address"
        },
        {
          "internalType": "uint256",
          "name": "amount",
          "type": "uint256"
        },
        {
          "internalType": "uint256",
          "name": "timestamp",
          "type": "uint256"
        }
      ],
      "stateMutability": "view",
      "type": "function"
    },
    {
      "inputs": [],
      "name": "nextId",
      "outputs": [
        {
          "internalType": "uint256",
          "name": "",
          "type": "uint256"
        }
      ],
      "stateMutability": "view",
      "type": "function"
    }
  ],
  "bytecode": "0x6080806040523461001657610486908161001c8239f35b600080fdfe604060808152600436101561001357600080fd5b600090813560e01c806313bf4f631461029257806361b8ce8c14610274578063e581329b146100b05763e79899bd1461004b57600080fd5b346100ac5760206003193601126100ac5780608092600435815280602052209073ffffffffffffffffffffffffffffffffffffffff918281541692600182015416916003600283015492015492815194855260208501528301526060820152f35b5080fd5b5090346102715780600319360112610271576001918254906100d18261040e565b815192907fffffffffffffffffffffffffffffffffffffffffffffffffffffffffffffffe090601f018116840167ffffffffffffffff81118582101761025d57839593969496528186526101248261040e565b01825b818110610227575050815b8181106101ae575050825192602080850191818652865180935281818701970193905b8382106101625786880387f35b8451805173ffffffffffffffffffffffffffffffffffffffff9081168a528482015116848a015281810151828a0152606090810151908901526080909701969382019390850190610155565b8061021c9184969497959752602086815260038588206101cc610395565b9273ffffffffffffffffffffffffffffffffffffffff8083541685528b83015416908401526002810154878401520154606082015261020b8287610426565b526102168186610426565b506103cb565b949294939193610132565b602090610238979597969496610395565b8781528288818301528887830152886060830152828801015201959395949294610127565b602486634e487b7160e01b81526041600452fd5b80fd5b50346100ac57816003193601126100ac576020906001549051908152f35b50346100ac5760606003193601126100ac5760043573ffffffffffffffffffffffffffffffffffffffff808216809203610391576024359281841680940361038d577fc4496ba22ee9a92525cd53ceb74c2ca7316bb6e172c0bc847ae4df23e47b9bd391604435906003610304610395565b91868352602083018881528584019085825260608501924284526001548c528b60205280888d20965116907fffffffffffffffffffffffff000000000000000000000000000000000000000091828854161787556001870192511690825416179055516002840155519101558151908152426020820152a36103876001546103cb565b60015580f35b8480fd5b8380fd5b604051906080820182811067ffffffffffffffff8211176103b557604052565b634e487b7160e01b600052604160045260246000fd5b7fffffffffffffffffffffffffffffffffffffffffffffffffffffffffffffffff81146103f85760010190565b634e487b7160e01b600052601160045260246000fd5b67ffffffffffffffff81116103b55760051b60200190565b805182101561043a5760209160051b010190565b634e487b7160e01b600052603260045260246000fdfea26469706673582212200d986836164a48a59fe7a76ee18c5be64fd9cbb748cbe9d8b17387f67bf850d164736f6c63430008140033",
  "linkReferences": {},
  "deployedLinkReferences": {}
}