{
  "_format": "hh-sol-artifact-1",
  "contractName": "EcoRewards",
  "sourceName": "contracts/EcoRewards.sol",
  "abi": [
    {
      "inputs": [
        {
          "internalType": "uint256",
          "name": "initialSupply",
          "type": "uint256"
        },
        {
          "internalType": "address",
          "name": "initialOwner",
          "type": "address"
        }
      ],
      "stateMutability": "nonpayable",
      "type": "constructor"
    },
    {
      "inputs": [
        {
          "internalType": "address",
          "name": "spender",
          "type": "address"
        },
        {
          "internalType": "uint256",
          "name": "allowance",
          "type": "uint256"
        },
        {
          "internalType": "uint256",
          "name": "needed",
          "type": "uint256"
        }
      ],
      "name": "ERC20InsufficientAllowance",
      "type": "error"
    },
    {
      "inputs": [
        {
          "internalType": "address",
          "name": "sender",
          "type": "address"
        },
        {
          "internalType": "uint256",
          "name": "balance",
          "type": "uint256"
        },
        {
          "internalType": "uint256",
          "name": "needed",
          "type": "uint256"
        }
      ],
      "name": "ERC20InsufficientBalance",
      "type": "error"
    },
    {
      "inputs": [
        {
          "internalType": "address",
          "name": "approver",
          "type": "address"
        }
      ],
      "name": "ERC20InvalidApprover",
      "type": "error"
    },
    {
      "inputs": [
        {
          "internalType": "address",
          "name": "receiver",
          "type": "address"
        }
      ],
      "name": "ERC20InvalidReceiver",
      "type": "error"
    },
    {
      "inputs": [
        {
          "internalType": "address",
          "name": "sender",
          "type": "address"
        }
      ],
      "name": "ERC20InvalidSender",
      "type": "error"
    },
    {
      "inputs": [
        {
          "internalType": "address",
          "name": "spender",
          "type": "address"
        }
      ],
      "name": "ERC20InvalidSpender",
      "type": "error"
    },
    {
      "inputs": [
        {
          "internalType": "address",
          "name": "owner",
          "type": "address"
        }
      ],
      "name": "OwnableInvalidOwner",
      "type": "error"
    },
    {
      "inputs": [
        {
          "internalType": "address",
          "name": "account",
          "type": "address"
        }
      ],
      "name": "OwnableUnauthorizedAccount",
      "type": "error"
    },
    {
      "anonymous": false,
      "inputs": [
        {
          "indexed": true,
          "internalType": "address",
          "name": "owner",
          "type": "address"
        },
        {
          "indexed": true,
          "internalType": "address",
          "name": "spender",
          "type": "address"
        },
        {
          "indexed": false,
          "internalType": "uint256",
          "name": "value",
          "type": "uint256"
        }
      ],
      "name": "Approval",
      "type": "event"
    },
    {
      "anonymous": false,
      "inputs": [
        {
          "indexed": true,
          "internalType": "address",
          "name": "previousOwner",
          "type": "address"
        },
        {
          "indexed": true,
          "internalType": "address",
          "name": "newOwner",
          "type": "address"
        }
      ],
      "name": "OwnershipTransferred",
      "type": "event"
    },
    {
      "anonymous": false,
      "inputs": [
        {
          "indexed": true,
          "internalType": "address",
          "name": "from",
          "type": "address"
        },
        {
          "indexed": true,
          "internalType": "address",
          "name": "to",
          "type": "address"
        },
        {
          "indexed": false,
          "internalType": "uint256",
          "name": "value",
          "type": "uint256"
        }
      ],
      "name": "Transfer",
      "type": "event"
    },
    {
      "inputs": [
        {
          "internalType": "address",
          "name": "owner",
          "type": "address"
        },
        {
          "internalType": "address",
          "name": "spender",
          "type": "address"
        }
      ],
      "name": "allowance",
      "outputs": [
        {
          "internalType": "uint256",
          "name": "",
          "type": "uint256"
        }
      ],
      "stateMutability": "view",
      "type": "function"
    },
    {
      "inputs": [
        {
          "internalType": "address",
          "name": "spender",
          "type": "address"
        },
        {
          "internalType": "uint256",
          "name": "value",
          "type": "uint256"
        }
      ],
      "name": "approve",
      "outputs": [
        {
          "internalType": "bool",
          "name": "",
          "type": "bool"
        }
      ],
      "stateMutability": "nonpayable",
      "type": "function"
    },
    {
      "inputs": [
        {
          "internalType": "address",
          "name": "account",
          "type": "address"
        }
      ],
      "name": "balanceOf",
      "outputs": [
        {
          "internalType": "uint256",
          "name": "",
          "type": "uint256"
        }
      ],
      "stateMutability": "view",
      "type": "function"
    },
    {
      "inputs": [],
      "name": "decimals",
      "outputs": [
        {
          "internalType": "uint8",
          "name": "",
          "type": "uint8"
        }
      ],
      "stateMutability": "view",
      "type": "function"
    },
    {
      "inputs": [
        {
          "internalType": "address",
          "name": "to",
          "type": "address"
        },
        {
          "internalType": "uint256",
          "name": "amount",
          "type": "uint256"
        }
      ],
      "name": "mint",
      "outputs": [],
      "stateMutability": "nonpayable",
      "type": "function"
    },
    {
      "inputs": [],
      "name": "minter",
      "outputs": [
        {
          "internalType": "address",
          "name": "",
          "type": "address"
        }
      ],
      "stateMutability": "view",
      "type": "function"
    },
    {
      "inputs": [],
      "name": "name",
      "outputs": [
        {
          "internalType": "string",
          "name": "",
          "type": "string"
        }
      ],
      "stateMutability": "view",
      "type": "function"
    },
    {
      "inputs": [],
      "name": "owner",
      "outputs": [
        {
          "internalType": "address",
          "name": "",
          "type": "address"
        }
      ],
      "stateMutability": "view",
      "type": "function"
    },
    {
      "inputs": [],
      "name": "renounceOwnership",
      "outputs": [],
      "stateMutability": "nonpayable",
      "type": "function"
    },
    {
      "inputs": [
        {
          "internalType": "address",
          "name": "_m",
          "type": "address"
        }
      ],
      "name": "setMinter",
      "outputs": [],
      "stateMutability": "nonpayable",
      "type": "function"
    },
    {
      "inputs": [],
      "name": "symbol",
      "outputs": [
        {
          "internalType": "string",
          "name": "",
          "type": "string"
        }
      ],
      "stateMutability": "view",
      "type": "function"
    },
    {
      "inputs": [],
      "name": "totalSupply",
      "outputs": [
        {
          "internalType": "uint256",
          "name": "",
          "type": "uint256"
        }
      ],
      "stateMutability": "view",
      "type": "function"
    },
    {
      "inputs": [
        {
          "internalType": "address",
          "name": "to",
          "type": "address"
        },
        {
          "internalType": "uint256",
          "name": "value",
          "type": "uint256"
        }
      ],
      "name": "transfer",
      "outputs": [
        {
          "internalType": "bool",
          "name": "",
          "type": "bool"
        }
      ],
      "stateMutability": "nonpayable",
      "type": "function"
    },
    {
      "inputs": [
        {
          "internalType": "address",
          "name": "from",
          "type": "address"
        },
        {
          "internalType": "address",
          "name": "to",
          "type": "address"
        },
        {
          "internalType": "uint256",
          "name": "value",
          "type": "uint256"
        }
      ],
      "name": "transferFrom",
      "outputs": [
        {
          "internalType": "bool",
          "name": "",
          "type": "bool"
        }
      ],
      "stateMutability": "nonpayable",
      "type": "function"
    },
    {
      "inputs": [
        {
          "internalType": "address",
          "name": "newOwner",
          "type": "address"
        }
      ],
      "name": "transferOwnership",
      "outputs": [],
      "stateMutability": "nonpayable",
      "type": "function"
    }
  ],
  "bytecode": "0x608034620004285762000f6b90601f19906001600160401b0390601f388590038181018516830190848211848310176200032a578084916040988994855283398101031262000428578151906020809301519460018060a01b039485871680970362000428576200006f6200042d565b92600a84526945636f5265776172647360b01b86850152620000906200042d565b936003918286526245434f60e81b8887015281518481116200032a5783546001938482811c921680156200041d575b8b83101462000407578184849311620003b1575b508a908483116001146200034c5760009262000340575b505060001982861b1c191690831b1783555b85519384116200032a5760049586548381811c911680156200031f575b8a8210146200030a57828111620002bf575b50889185116001146200025657849550908492916000956200024a575b50501b92600019911b1c19161781555b84156200023357600580546001600160a01b0319808216881790925590948691167f8be0079c531659141344cd1fd0a4f28419497f9722a3daafe3b4186f6b6457e0600080a3670de0b6b3a7640000918281029281840414901517156200021e57600254908282018092116200021e575084926000927fddf252ad1be2c89b69c2b068fc378daa952ba7f163c4a11628f55a4df523b3ef926002558484528382528784208181540190558751908152a3600654161760065551610b1d90816200044e8239f35b601190634e487b7160e01b6000525260246000fd5b6024906000875191631e4fbdf760e01b8352820152fd5b01519350388062000148565b9291948416928660005284896000209460005b8b89838310620002a757505050106200028c575b50505050811b01815562000158565b01519060f884600019921b161c19169055388080806200027d565b86860151895590970196948501948893500162000269565b87600052896000208380880160051c8201928c891062000300575b0160051c019084905b828110620002f35750506200012b565b60008155018490620002e3565b92508192620002da565b602288634e487b7160e01b6000525260246000fd5b90607f169062000119565b634e487b7160e01b600052604160045260246000fd5b015190503880620000ea565b908886941691876000528c600020928d6000905b82821062000399575050841162000380575b505050811b018355620000fc565b015160001983881b60f8161c1916905538808062000372565b83850151865589979095019493840193018e62000360565b909150856000528a6000208480850160051c8201928d8610620003fd575b918791869594930160051c01915b828110620003ed575050620000d3565b60008155859450879101620003dd565b92508192620003cf565b634e487b7160e01b600052602260045260246000fd5b91607f1691620000bf565b600080fd5b60408051919082016001600160401b038111838210176200032a5760405256fe60806040908082526004918236101561001757600080fd5b600092833560e01c92836306fdde031461081f5750826307546172146107f7578263095ea7b31461071c57826318160ddd146106fd57826323b872dd146105a3578263313ce5671461058757826340c10f191461045e57826370a0823114610428578263715018a6146103c05782638da5cb5b1461039857826395d89b411461024c578263a9059cbb1461021b578263dd62ed3e146101ce578263f2fde38b1461011a57505063fca3b5aa146100cc57600080fd5b34610117576020600319360112610117576001600160a01b036100ed61094b565b6100f561097c565b1673ffffffffffffffffffffffffffffffffffffffff19600654161760065580f35b80fd5b909150346101ca5760206003193601126101ca5761013661094b565b9061013f61097c565b6001600160a01b0380921692831561019b5750506005548273ffffffffffffffffffffffffffffffffffffffff19821617600555167f8be0079c531659141344cd1fd0a4f28419497f9722a3daafe3b4186f6b6457e08380a380f35b908460249251917f1e4fbdf7000000000000000000000000000000000000000000000000000000008352820152fd5b8280fd5b838234610217578060031936011261021757806020926101ec61094b565b6101f4610966565b6001600160a01b0391821683526001865283832091168252845220549051908152f35b5080fd5b83823461021757806003193601126102175760209061024561023b61094b565b60243590336109c0565b5160018152f35b838234610217578160031936011261021757805190828454600181811c9080831692831561038e575b602093848410811461037b57838852879594939291811561033e57506001146102e0575b50505003601f01601f191682019267ffffffffffffffff8411838510176102cd57508291826102c9925282610903565b0390f35b80604186634e487b7160e01b6024945252fd5b8888529193925086917f8a35acfbc15ff81a39ae7d344fd709f28e8600b4aa8c65c6b64bfe7fe36bd19b5b8284106103285750505090601f1992601f92820101918193610299565b805488850187015287945092850192810161030b565b7fffffffffffffffffffffffffffffffffffffffffffffffffffffffffffffff0016848701525050151560051b830101905081601f601f19610299565b60248960228c634e487b7160e01b835252fd5b91607f1691610275565b8382346102175781600319360112610217576020906001600160a01b03600554169051908152f35b83346101175780600319360112610117576103d961097c565b806001600160a01b0360055473ffffffffffffffffffffffffffffffffffffffff198116600555167f8be0079c531659141344cd1fd0a4f28419497f9722a3daafe3b4186f6b6457e08280a380f35b83823461021757602060031936011261021757806020926001600160a01b0361044f61094b565b16815280845220549051908152f35b9150346101ca57806003193601126101ca5761047861094b565b90602435916001600160a01b03908160065416330361052a57169283156104fc57600254908382018092116104e9575084927fddf252ad1be2c89b69c2b068fc378daa952ba7f163c4a11628f55a4df523b3ef9260209260025585855284835280852082815401905551908152a380f35b856011602492634e487b7160e01b835252fd5b8460249251917fec442f05000000000000000000000000000000000000000000000000000000008352820152fd5b60648560208551917f08c379a0000000000000000000000000000000000000000000000000000000008352820152600e60248201527f4e6f7420617574686f72697a65640000000000000000000000000000000000006044820152fd5b8382346102175781600319360112610217576020905160128152f35b8334610117576060600319360112610117576105bd61094b565b6105c5610966565b91604435936001600160a01b038316808352600160205286832033845260205286832054917fffffffffffffffffffffffffffffffffffffffffffffffffffffffffffffffff8310610620575b6020886102458989896109c0565b8683106106b857811561068957331561065a5750825260016020908152868320338452815291869020908590039055829061024587610612565b602490848951917f94280d62000000000000000000000000000000000000000000000000000000008352820152fd5b602490848951917fe602df05000000000000000000000000000000000000000000000000000000008352820152fd5b87517ffb8f41b2000000000000000000000000000000000000000000000000000000008152339181019182526020820193909352604081018790528291506060010390fd5b8382346102175781600319360112610217576020906002549051908152f35b909150346101ca57816003193601126101ca5761073761094b565b6024359033156107c8576001600160a01b031691821561079957508083602095338152600187528181208582528752205582519081527f8c5be1e5ebec7d5bd14f71427d1e84f3dd0314c0f7b2291e5b200ac8c7c3b925843392a35160018152f35b602490858551917f94280d62000000000000000000000000000000000000000000000000000000008352820152fd5b602483868651917fe602df05000000000000000000000000000000000000000000000000000000008352820152fd5b8382346102175781600319360112610217576020906001600160a01b03600654169051908152f35b849192346101ca57826003193601126101ca5782600354600181811c908083169283156108f9575b602093848410811461037b57838852879594939291811561033e575060011461089a5750505003601f01601f191682019267ffffffffffffffff8411838510176102cd57508291826102c9925282610903565b600388529193925086917fc2575a0e9e593c00f959f8c92f12db2869c3395a3b0502d05e2516446f71f85b5b8284106108e35750505090601f1992601f92820101918193610299565b80548885018701528794509285019281016108c6565b91607f1691610847565b60208082528251818301819052939260005b85811061093757505050601f19601f8460006040809697860101520116010190565b818101830151848201604001528201610915565b600435906001600160a01b038216820361096157565b600080fd5b602435906001600160a01b038216820361096157565b6001600160a01b0360055416330361099057565b60246040517f118cdaa7000000000000000000000000000000000000000000000000000000008152336004820152fd5b916001600160a01b03808416928315610ab65716928315610a855760009083825281602052604082205490838210610a3a575091604082827fddf252ad1be2c89b69c2b068fc378daa952ba7f163c4a11628f55a4df523b3ef958760209652828652038282205586815220818154019055604051908152a3565b6040517fe450d38c0000000000000000000000000000000000000000000000000000000081526001600160a01b03919091166004820152602481019190915260448101839052606490fd5b60246040517fec442f0500000000000000000000000000000000000000000000000000000000815260006004820152fd5b60246040517f96c6fd1e00000000000000000000000000000000000000000000000000000000815260006004820152fdfea2646970667358221220015fd5c32361456ba7e84b49056105013ad670bb5819c14a92875e107b82133764736f6c63430008140033",
  "linkReferences": {},
  "deployedLinkReferences": {}
}