{
  "_format": "hh-sol-artifact-1",
  "contractName": "EnergyTrading",
  "sourceName": "contracts/EnergyTrading.sol",
  "abi": [
    {
      "inputs": [
        {
          "internalType": "address",
          "name": "_token",
          "type": "address"
        },
        {
          "internalType": "address",
          "name": "_matcher",
          "type": "address"
        },
        {
          "internalType": "uint256",
          "name": "_scoreThr",
          "type": "uint256"
        }
      ],
      "stateMutability": "nonpayable",
      "type": "constructor"
    },
    {
      "anonymous": false,
      "inputs": [
        {
          "indexed": true,
          "internalType": "address",
          "name": "user",
          "type": "address"
        },
        {
          "indexed": false,
          "internalType": "uint256",
          "name": "score",
          "type": "uint256"
        },
        {
          "indexed": false,
          "internalType": "uint256",
          "name": "reward",
          "type": "uint256"
        },
        {
          "indexed": false,
          "internalType": "uint256",
          "name": "timestamp",
          "type": "uint256"
        }
      ],
      "name": "RewardIssued",
      "type": "event"
    },
    {
      "anonymous": false,
      "inputs": [
        {
          "indexed": false,
          "internalType": "uint256",
          "name": "buyId",
          "type": "uint256"
        },
        {
          "indexed": false,
          "internalType": "uint256",
          "name": "sellId",
          "type": "uint256"
        },
        {
          "indexed": false,
          "internalType": "uint256",
          "name": "amount",
          "type": "uint256"
        },
        {
          "indexed": false,
          "internalType": "uint256",
          "name": "pricePerUnit",
          "type": "uint256"
        },
        {
          "indexed": false,
          "internalType": "address",
          "name": "buyer",
          "type": "address"
        },
        {
          "indexed": false,
          "internalType": "address",
          "name": "seller",
          "type": "address"
        }
      ],
      "name": "TradeExecuted",
      "type": "event"
    },
    {
      "inputs": [],
      "name": "auditLog",
      "outputs": [
        {
          "internalType": "contract IAuditLog",
          "name": "",
          "type": "address"
        }
      ],
      "stateMutability": "view",
      "type": "function"
    },
    {
      "inputs": [
        {
          "internalType": "address",
          "name": "user",
          "type": "address"
        }
      ],
      "name": "computeScoreBps",
      "outputs": [
        {
          "internalType": "uint256",
          "name": "",
          "type": "uint256"
        }
      ],
      "stateMutability": "view",
      "type": "function"
    },
    {
      "inputs": [],
      "name": "ecoRewards",
      "outputs": [
        {
          "internalType": "contract IEcoRewards",
          "name": "",
          "type": "address"
        }
      ],
      "stateMutability": "view",
      "type": "function"
    },
    {
      "inputs": [],
      "name": "energyToken",
      "outputs": [
        {
          "internalType": "contract IERC20",
          "name": "",
          "type": "address"
        }
      ],
      "stateMutability": "view",
      "type": "function"
    },
    {
      "inputs": [
        {
          "internalType": "address",
          "name": "",
          "type": "address"
        }
      ],
      "name": "energyUsage",
      "outputs": [
        {
          "internalType": "uint256",
          "name": "",
          "type": "uint256"
        }
      ],
      "stateMutability": "view",
      "type": "function"
    },
    {
      "inputs": [
        {
          "internalType": "uint256",
          "name": "buyId",
          "type": "uint256"
        },
        {
          "internalType": "uint256",
          "name": "sellId",
          "type": "uint256"
        },
        {
          "internalType": "uint256",
          "name": "amount",
          "type": "uint256"
        },
        {
          "internalType": "uint256",
          "name": "pricePerUnit",
          "type": "uint256"
        }
      ],
      "name": "executeMatch",
      "outputs": [],
      "stateMutability": "nonpayable",
      "type": "function"
    },
    {
      "inputs": [],
      "name": "getActiveOrders",
      "outputs": [
        {
          "components": [
            {
              "internalType": "uint256",
              "name": "id",
              "type": "uint256"
            },
            {
              "internalType": "address",
              "name": "user",
              "type": "address"
            },
            {
              "internalType": "uint256",
              "name": "amount",
              "type": "uint256"
            },
            {
              "internalType": "uint256",
              "name": "pricePerUnit",
              "type": "uint256"
            },
            {
              "internalType": "uint256",
              "name": "locationId",
              "type": "uint256"
            },
            {
              "internalType": "uint256",
              "name": "startTime",
              "type": "uint256"
            },
            {
              "internalType": "uint256",
              "name": "endTime",
              "type": "uint256"
            },
            {
              "internalType": "uint256",
              "name": "expiry",
              "type": "uint256"
            },
            {
              "internalType": "uint256",
              "name": "filled",
              "type": "uint256"
            },
            {
              "internalType": "bool",
              "name": "isBuy",
              "type": "bool"
            },
            {
              "internalType": "bool",
              "name": "active",
              "type": "bool"
            }
          ],
          "internalType": "struct EnergyTrading.Order[]",
          "name": "",
          "type": "tuple[]"
        }
      ],
      "stateMutability": "view",
      "type": "function"
    },
    {
      "inputs": [
        {
          "internalType": "address",
          "name": "user",
          "type": "address"
        }
      ],
      "name": "getEnergyUsage",
      "outputs": [
        {
          "internalType": "uint256",
          "name": "",
          "type": "uint256"
        }
      ],
      "stateMutability": "view",
      "type": "function"
    },
    {
      "inputs": [
        {
          "internalType": "uint256",
          "name": "id",
          "type": "uint256"
        }
      ],
      "name": "getOrder",
      "outputs": [
        {
          "components": [
            {
              "internalType": "uint256",
              "name": "id",
              "type": "uint256"
            },
            {
              "internalType": "address",
              "name": "user",
              "type": "address"
            },
            {
              "internalType": "uint256",
              "name": "amount",
              "type": "uint256"
            },
            {
              "internalType": "uint256",
              "name": "pricePerUnit",
              "type": "uint256"
            },
            {
              "internalType": "uint256",
              "name": "locationId",
              "type": "uint256"
            },
            {
              "internalType": "uint256",
              "name": "startTime",
              "type": "uint256"
            },
            {
              "internalType": "uint256",
              "name": "endTime",
              "type": "uint256"
            },
            {
              "internalType": "uint256",
              "name": "expiry",
              "type": "uint256"
            },
            {
              "internalType": "uint256",
              "name": "filled",
              "type": "uint256"
            },
            {
              "internalType": "bool",
              "name": "isBuy",
              "type": "bool"
            },
            {
              "internalType": "bool",
              "name": "active",
              "type": "bool"
            }
          ],
          "internalType": "struct EnergyTrading.Order",
          "name": "",
          "type": "tuple"
        }
      ],
      "stateMutability": "view",
      "type": "function"
    },
    {
      "inputs": [
        {
          "internalType": "uint256",
          "name": "id",
          "type": "uint256"
        }
      ],
      "name": "isOrderValid",
      "outputs": [
        {
          "internalType": "bool",
          "name": "",
          "type": "bool"
        }
      ],
      "stateMutability": "view",
      "type": "function"
    },
    {
      "inputs": [],
      "name": "matcher",
      "outputs": [
        {
          "internalType": "address",
          "name": "",
          "type": "address"
        }
      ],
      "stateMutability": "view",
      "type": "function"
    },
    {
      "inputs": [
        {
          "internalType": "address",
          "name": "",
          "type": "address"
        }
      ],
      "name": "metricsOf",
      "outputs": [
        {
          "internalType": "uint256",
          "name": "baseline",
          "type": "uint256"
        },
        {
          "internalType": "uint256",
          "name": "actual",
          "type": "uint256"
        },
        {
          "internalType": "uint256",
          "name": "peakReductionBps",
          "type": "uint256"
        },
        {
          "internalType": "uint256",
          "name": "powerFactorBps",
          "type": "uint256"
        },
        {
          "internalType": "uint256",
          "name": "renewableBps",
          "type": "uint256"
        }
      ],
      "stateMutability": "view",
      "type": "function"
    },
    {
      "inputs": [],
      "name": "nextOrderId",
      "outputs": [
        {
          "internalType": "uint256",
          "name": "",
          "type": "uint256"
        }
      ],
      "stateMutability": "view",
      "type": "function"
    },
    {
      "inputs": [
        {
          "internalType": "uint256",
          "name": "",
          "type": "uint256"
        }
      ],
      "name": "orders",
      "outputs": [
        {
          "internalType": "uint256",
          "name": "id",
          "type": "uint256"
        },
        {
          "internalType": "address",
          "name": "user",
          "type": "address"
        },
        {
          "internalType": "uint256",
          "name": "amount",
          "type": "uint256"
        },
        {
          "internalType": "uint256",
          "name": "pricePerUnit",
          "type": "uint256"
        },
        {
          "internalType": "uint256",
          "name": "locationId",
          "type": "uint256"
        },
        {
          "internalType": "uint256",
          "name": "startTime",
          "type": "uint256"
        },
        {
          "internalType": "uint256",
          "name": "endTime",
          "type": "uint256"
        },
        {
          "internalType": "uint256",
          "name": "expiry",
          "type": "uint256"
        },
        {
          "internalType": "uint256",
          "name": "filled",
          "type": "uint256"
        },
        {
          "internalType": "bool",
          "name": "isBuy",
          "type": "bool"
        },
        {
          "internalType": "bool",
          "name": "active",
          "type": "bool"
        }
      ],
      "stateMutability": "view",
      "type": "function"
    },
    {
      "inputs": [],
      "name": "owner",
      "outputs": [
        {
          "internalType": "address",
          "name": "",
          "type": "address"
        }
      ],
      "stateMutability": "view",
      "type": "function"
    },
    {
      "inputs": [
        {
          "internalType": "uint256",
          "name": "",
          "type": "uint256"
        }
      ],
      "name": "participants",
      "outputs": [
        {
          "internalType": "address",
          "name": "",
          "type": "address"
        }
      ],
      "stateMutability": "view",
      "type": "function"
    },
    {
      "inputs": [
        {
          "internalType": "bool",
          "name": "isBuy",
          "type": "bool"
        },
        {
          "internalType": "uint256",
          "name": "amount",
          "type": "uint256"
        },
        {
          "internalType": "uint256",
          "name": "price",
          "type": "uint256"
        },
        {
          "internalType": "uint256",
          "name": "loc",
          "type": "uint256"
        },
        {
          "internalType": "uint256",
          "name": "start",
          "type": "uint256"
        },
        {
          "internalType": "uint256",
          "name": "end",
          "type": "uint256"
        },
        {
          "internalType": "uint256",
          "name": "ttl",
          "type": "uint256"
        }
      ],
      "name": "placeOrder",
      "outputs": [
        {
          "internalType": "uint256",
          "name": "",
          "type": "uint256"
        }
      ],
      "stateMutability": "nonpayable",
      "type": "function"
    },
    {
      "inputs": [
        {
          "internalType": "uint256",
          "name": "baseReward",
          "type": "uint256"
        }
      ],
      "name": "rewardUsers",
      "outputs": [],
      "stateMutability": "nonpayable",
      "type": "function"
    },
    {
      "inputs": [],
      "name": "scoreThresholdBps",
      "outputs": [
        {
          "internalType": "uint256",
          "name": "",
          "type": "uint256"
        }
      ],
      "stateMutability": "view",
      "type": "function"
    },
    {
      "inputs": [
        {
          "internalType": "address",
          "name": "",
          "type": "address"
        }
      ],
      "name": "seen",
      "outputs": [
        {
          "internalType": "bool",
          "name": "",
          "type": "bool"
        }
      ],
      "stateMutability": "view",
      "type": "function"
    },
    {
      "inputs": [
        {
          "internalType": "address",
          "name": "_a",
          "type": "address"
        }
      ],
      "name": "setAuditLog",
      "outputs": [],
      "stateMutability": "nonpayable",
      "type": "function"
    },
    {
      "inputs": [
        {
          "internalType": "address",
          "name": "_e",
          "type": "address"
        }
      ],
      "name": "setEcoRewards",
      "outputs": [],
      "stateMutability": "nonpayable",
      "type": "function"
    },
    {
      "inputs": [
        {
          "internalType": "address",
          "name": "user",
          "type": "address"
        },
        {
          "internalType": "uint256",
          "name": "units",
          "type": "uint256"
        }
      ],
      "name": "setEnergyUsage",
      "outputs": [],
      "stateMutability": "nonpayable",
      "type": "function"
    },
    {
      "inputs": [
        {
          "internalType": "address",
          "name": "_m",
          "type": "address"
        }
      ],
      "name": "setMatcher",
      "outputs": [],
      "stateMutability": "nonpayable",
      "type": "function"
    },
    {
      "inputs": [
        {
          "internalType": "address",
          "name": "user",
          "type": "address"
        },
        {
          "internalType": "uint256",
          "name": "baseline",
          "type": "uint256"
        },
        {
          "internalType": "uint256",
          "name": "actual",
          "type": "uint256"
        },
        {
          "internalType": "uint256",
          "name": "peak",
          "type": "uint256"
        },
        {
          "internalType": "uint256",
          "name": "pf",
          "type": "uint256"
        },
        {
          "internalType": "uint256",
          "name": "ren",
          "type": "uint256"
        }
      ],
      "name": "setMetrics",
      "outputs": [],
      "stateMutability": "nonpayable",
      "type": "function"
    },
    {
      "inputs": [
        {
          "internalType": "uint256",
          "name": "thr",
          "type": "uint256"
        }
      ],
      "name": "setThreshold",
      "outputs": [],
      "stateMutability": "nonpayable",
      "type": "function"
    }
  ],
  "bytecode": "0x60803461009b57601f61164838819003918201601f19168301916001600160401b038311848410176100a05780849260609460405283398101031261009b57610047816100b6565b6040610055602084016100b6565b9201519160018060a01b0319913383600054161760005560018060a01b038092168360015416176001551690600254161760025560055560405161157d90816100cb8239f35b600080fd5b634e487b7160e01b600052604160045260246000fd5b51906001600160a01b038216820361009b5756fe60406080815260048036101561001457600080fd5b600091823560e01c90816286e68b14610d835781631c5a129914610d405781632a58b33014610d2157816335c1d34914610cde5781633f53482114610cb657816341a5b1c314610c895781634cb7332b14610a505781634ec7fb8114610a285781635a2d6ebd14610a005781635cf517a61461099f5781635fcb96831461094c57816369c133d3146105de57816372b91e61146105a25781637616669d1461047e5781637e7e66b21461045657816384064671146104215781638da5cb5b146103fb5781638f881d021461024d578163960bfe04146103cc578163963ddbe914610379578163a85c38ef146102d0578163c9bd9ff0146102a3578163cb196fec14610284578163cdc08e801461024d578163d09ef24114610193575063d5ede1501461013f57600080fd5b3461018f57602060031936011261018f57610158610f60565b6001600160a01b039061016f828554163314610fc8565b1673ffffffffffffffffffffffffffffffffffffffff1982541617905580f35b5080fd5b91905034610249576020600319360112610249576101ca8261016094610247936101bb611099565b503581526006602052206110ec565b91518092805182526001600160a01b03602082015116602083015260408101516040830152606081015160608301526080810151608083015260a081015160a083015260c081015160c083015260e081015160e0830152610100808201519083015261012080820151151590830152610140809101511515910152565bf35b8280fd5b83903461018f57602060031936011261018f57806020926001600160a01b03610274610f60565b1681526008845220549051908152f35b83903461018f578160031936011261018f576020906005549051908152f35b905082346102cd5760206003193601126102cd57506102c4602092356111c8565b90519015158152f35b80fd5b919050346102495760206003193601126102495780826101609460ff933581526006602052208054936001600160a01b0360018301541692600283015490600384015490840154600585015491600686015493600787015495600960088901549801549881519b8c5260208c01528a01526060890152608088015260a087015260c086015260e0850152610100840152818116151561012084015260081c161515610140820152f35b83346102cd5760206003193601126102cd57610393610f60565b6001600160a01b03906103aa828454163314610fc8565b1673ffffffffffffffffffffffffffffffffffffffff19600154161760015580f35b50503461018f57602060031936011261018f576103f46001600160a01b038354163314610fc8565b3560055580f35b83903461018f578160031936011261018f576001600160a01b0360209254169051908152f35b50503461018f57602060031936011261018f576104539061044d6001600160a01b038454163314610fc8565b3561137e565b80f35b83903461018f578160031936011261018f576020906001600160a01b03600154169051908152f35b919050346102495760c06003193601126102495761049a610f60565b906001600160a01b03926104b2848654163314610fc8565b80516104bd8161105a565b6024358152826020820194604435865283830160643581526060840190608435825288608086019360a43585521697888b526009602052868b209551865551600186015551600285015551600384015551910155600b6020528420805460ff811615610527578580f35b7fffffffffffffffffffffffffffffffffffffffffffffffffffffffffffffff00166001179055600a54906801000000000000000082101561058f57508060016105749201600a55610f7b565b909283549160031b92831b921b191617905538808080808580f35b846041602492634e487b7160e01b835252fd5b83903461018f57602060031936011261018f5760ff816020936001600160a01b036105cb610f60565b168152600b855220541690519015158152f35b83833461018f57608060031936011261018f57803592602435604435926064356001600160a01b03908160015416330361090957878752602093600685528588208189528689209061062f8b6111c8565b806108fa575b156108b8578392918a91670de0b6b3a764000061065388978d611240565b04898b886002541660018501968a885416908d6106c260018a019e8f54169551978896879586947f23b872dd00000000000000000000000000000000000000000000000000000000865285016040919493929460608201956001600160a01b0380921683521660208201520152565b03925af19081156108ae578d91610874575b5015610832579285808d9e947fa7ecddcf9e07e136807e8708706528ac8e972ee27fdab2718a657696b058bd4097948e9f9d9e88600860c09a016107198382546111bb565b815561072a600885019384546111bb565b83555460028201541115610820575b50546002820154111561080e575b505416975416988b519384528301528a8a83015260608201528460808201528660a0820152a1825416918261077a578480f35b823b1561080a5784906107d78751988996879586947f13bf4f6300000000000000000000000000000000000000000000000000000000865285016040919493929460608201956001600160a01b0380921683521660208201520152565b03925af190811561080157506107f2575b8082818080808480f35b6107fb90611046565b816107e8565b513d84823e3d90fd5b8480fd5b60090161ff0019815416905538610747565b60090161ff0019815416905538610739565b6064888a8c519162461bcd60e51b8352820152601360248201527f45544b207472616e73666572206661696c6564000000000000000000000000006044820152fd5b90508981813d83116108a7575b61088b8183611076565b810103126108a3575180151581036108a3578e6106d4565b8c80fd5b503d610881565b8b513d8f823e3d90fd5b606486888a519162461bcd60e51b8352820152600d60248201527f696e76616c6964206f72646572000000000000000000000000000000000000006044820152fd5b50610904836111c8565b610635565b606483602087519162461bcd60e51b8352820152600c60248201527f4f6e6c79206d61746368657200000000000000000000000000000000000000006044820152fd5b83346102cd5760206003193601126102cd57610966610f60565b6001600160a01b039061097d828454163314610fc8565b1673ffffffffffffffffffffffffffffffffffffffff19600354161760035580f35b905034610249576020600319360112610249578060a0936001600160a01b036109c6610f60565b1681526009602052208054926001820154926002830154916003840154930154938151958652602086015284015260608301526080820152f35b905082346102cd57806003193601126102cd57506001600160a01b0360209254169051908152f35b83903461018f578160031936011261018f576020906001600160a01b03600254169051908152f35b919050346102495760e060031936011261024957803590811515809203610c8557608435936044359060243560a4358115610c42578315610bff5787811115610bbc57600754610a9f90611178565b6007819055978895610ab360c435426111bb565b93895196610ac088611013565b88885260208801913383528b8901908152606089019182526080890192606435845260a08a0195865260c08a0196875260e08a019788528c6101008b0199808b526101208c019d8e526101408c019c60018e52815260066020522099518a5560018a0190516001600160a01b0316815473ffffffffffffffffffffffffffffffffffffffff19161790555160028901555160038801555190860155516005850155516006840155516007830155516008820155600901915115159082549051151560081b61ff00169160ff16907fffffffffffffffffffffffffffffffffffffffffffffffffffffffffffff0000161717905551908152602090f35b606485602089519162461bcd60e51b8352820152600e60248201527f696e76616c69642077696e646f770000000000000000000000000000000000006044820152fd5b606485602089519162461bcd60e51b8352820152600760248201527f70726963653e30000000000000000000000000000000000000000000000000006044820152fd5b606485602089519162461bcd60e51b8352820152600860248201527f616d6f756e743e300000000000000000000000000000000000000000000000006044820152fd5b8380fd5b83903461018f57602060031936011261018f57602090610caf610caa610f60565b611273565b9051908152f35b83903461018f578160031936011261018f576020906001600160a01b03600354169051908152f35b91905034610249576020600319360112610249573591600a548310156102cd57506001600160a01b03610d12602093610f7b565b92905490519260031b1c168152f35b83903461018f578160031936011261018f576020906007549051908152f35b83903461018f578060031936011261018f57610d5a610f60565b6001600160a01b0390610d71828554163314610fc8565b16825260086020526024359082205580f35b83346102cd57806003193601126102cd57908160019081600754905b81811115610f235750601f19610dcc610db787611214565b96610dc487519889611076565b808852611214565b01825b818110610f0057505081835b82811115610ea15750505082519260208080860192818752875180945286019601925b828110610e0b5785870386f35b909192938261016088610e94849a8951805182526001600160a01b03602082015116602083015260408101516040830152606081015160608301526080810151608083015260a081015160a083015260c081015160c083015260e081015160e0830152610100808201519083015261012080820151151590830152610140809101511515910152565b0197950193929101610dfe565b80610eb4610ebd929896989795976111c8565b610ec857611178565b959395949294610ddb565b8087526006602052610efa85882093610ee9610ee382611178565b956110ec565b610ef3828a61122c565b528761122c565b50611178565b602090610f11979597969496611099565b82828801015201959395949294610dcf565b610f32819694969593956111c8565b610f4b575b610f4090611178565b949294939193610d9f565b92610f58610f4091611178565b939050610f37565b600435906001600160a01b0382168203610f7657565b600080fd5b600a54811015610fb257600a6000527fc65a7bb8d6351c1cf70c95a316cc6a92839c986682d98bc35f958f4883f9d2a80190600090565b634e487b7160e01b600052603260045260246000fd5b15610fcf57565b606460405162461bcd60e51b815260206004820152600a60248201527f4f6e6c79206f776e6572000000000000000000000000000000000000000000006044820152fd5b610160810190811067ffffffffffffffff82111761103057604052565b634e487b7160e01b600052604160045260246000fd5b67ffffffffffffffff811161103057604052565b60a0810190811067ffffffffffffffff82111761103057604052565b90601f601f19910116810190811067ffffffffffffffff82111761103057604052565b604051906110a682611013565b816101406000918281528260208201528260408201528260608201528260808201528260a08201528260c08201528260e082015282610100820152826101208201520152565b906040516110f981611013565b61014060ff60098395805485526001600160a01b036001820154166020860152600281015460408601526003810154606086015260048101546080860152600581015460a0860152600681015460c0860152600781015460e086015260088101546101008601520154818116151561012085015260081c161515910152565b7fffffffffffffffffffffffffffffffffffffffffffffffffffffffffffffffff81146111a55760010190565b634e487b7160e01b600052601160045260246000fd5b919082018092116111a557565b60005260066020526111dd60406000206110ec565b6101408101511561120e5760e0810151421161120e576040610100820151910151111561120957600190565b600090565b50600090565b67ffffffffffffffff81116110305760051b60200190565b8051821015610fb25760209160051b010190565b818102929181159184041417156111a557565b811561125d570490565b634e487b7160e01b600052601260045260246000fd5b6001600160a01b036000911681526009602052604081206040516112968161105a565b8154928382526001830154806020840152600284015492604081019384526004600386015495606083019687520154956080820196875280156113745780831061130e57505050916112f36112f3926112fb9594905b51906111bb565b9051906111bb565b612710808211611309575090565b905090565b82810393919281851161136057612710808602958604149114171561134c57506112f3926113466112fb9695936112f3935190611253565b906112ec565b80634e487b7160e01b602492526011600452fd5b602483634e487b7160e01b81526011600452fd5b5050509250505090565b6001600160a01b0390600391808354161561150357600a549182156114fd57600091825b8481106114c3575082156114bc5760005b8481106113c257505050505050565b816113cc82610f7b565b905490881b1c166113dc81611273565b6113ef866113ea8388611240565b611253565b80611406575b50505061140190611178565b6113b3565b8489541690813b15610f765760008060409360448551809481937f40c10f190000000000000000000000000000000000000000000000000000000083528a60048401528760248401525af180156114b15792606092611401979695927fed07ffe6b7584d592bfe850b425a8f4b1c33387d74280a6645b9be1ba5e76e90956114a2575b50815192835260208301524290820152a29038806113f5565b6114ab90611046565b38611489565b83513d6000823e3d90fd5b5050505050565b6114dc826114d083610f7b565b905490891b1c16611273565b8481116114f3575b506114ee90611178565b6113a2565b93506114ee6114e4565b50505050565b606460405162461bcd60e51b815260206004820152600b60248201527f65636f206e6f74207365740000000000000000000000000000000000000000006044820152fdfea2646970667358221220b56395c83f157a6f66205da742f157a27725060260acaea41a0f07fd66b5458b64736f6c63430008140033",
  "linkReferences": {},
  "deployedLinkReferences": {}
}